:100000000C942A000C943C000C943C000C943C0092
:100010000C943C000C943C000C943C000C943C0070
:100020000C943C000C94E5050C943C000C943C00B2
:100030000C943C000C94B3070C9435070C943C00D2
:100040000C9448000C943C000C943C000C943C0034
:100050000C943C0011241FBECFE5D8E0DEBFCDBF1D
:1000600020E0A0E6B0E001C01D92A93FB207E1F791
:100070000E9415060C94BD090C94000017B88FEA75
:1000800086B910BE369A97B181E0892787B908955D
:100090001F920F920FB60F9211242F933F934F93FD
:1000A0005F938F939F93EF93FF9397B181E089279D
:1000B00087B924B135B1932F80E0822B27B1322F3D
:1000C000317020FF04C0313009F03FC01FC0D99B00
:1000D0000FC0EFECF0E020813181A901481B590BE2
:1000E00051834083EDECF0E080818F5F80832DC0F1
:1000F000EFECF0E020813181820F931F91838083A8
:10010000EDECF0E080818F5F80831FC02BB3237004
:1001100079F0E1EDF0E020813181A901481B590B14
:1001200051834083EEECF0E080818F5F80830DC0CF
:10013000E1EDF0E020813181820F931F9183808374
:10014000EEECF0E080818F5F8083FF91EF919F91D3
:100150008F915F914F913F912F910F900FBE0F9014
:100160001F901895CF93DF93FC01EB019A01109239
:10017000CD001092D0001092CF001092CE001092BD
:10018000D2001092D1008A819B81DA0111966C9184
:1001900070E00E9495097383628388819981D901F7
:1001A0006C9170E00E94950971836083DF91CF911B
:1001B00008952F923F924F925F926F927F928F920B
:1001C0009F92AF92BF92CF92DF92EF92FF920F93E6
:1001D0001F93CF93DF93CDB7DEB72E970FB6F8946A
:1001E000DEBF0FBECDBF6B877C878D879E87322E8B
:1001F000232E49835A83270138019A86898620E075
:1002000030E040E85FE3C801B7010E942E091816EC
:100210009CF020E030E040E85FEBC801B7010E94AD
:10022000780888238CF40F2E412C512CF0E86F2E87
:10023000FFEB7F2EF02D08C00F2E412C512CF0E843
:100240006F2EFFE37F2EF02D20E030E040E85FE3EB
:10025000C601B5010E942E0918169CF020E030E07E
:1002600040E85FEBC601B5010E94780888238CF452
:100270000F2EA12CB12CF0E8CF2EFFEBDF2EF02DAE
:1002800008C00F2EA12CB12CF0E8CF2EFFE3DF2EFB
:10029000F02D8091600090916100A0916200B0917A
:1002A00063008D839E83AF83B887809364009093AF
:1002B0006500A0936600B0936700A3019201C60198
:1002C000B5010E9413082AE132E646E850E40E9494
:1002D0003209962E872E8B839C83382F292F862FC9
:1002E000982DA32FB22F8093600090936100A0936C
:1002F0006200B0936300A6019501C301B2010E94A0
:10030000140820E030E040E05FE30E943209762EDE
:10031000672E582E492E862F962DA52DB42D80930D
:10032000680090936900A0936A00B0936B009B8172
:100330008C81292D382D492F582F6D817E818F81F9
:1003400098850E9414082AE037ED43E25BE30E949F
:10035000320920916C0030916D0040916E005091F7
:100360006F000E941408A62EB72EC82ED92EE62E96
:10037000F72E082F192F2BED3FE049EC50E40E9497
:100380002E0918167CF42BED3FE049EC50E46A2D61
:100390007B2D8C2D9D2D0E941308E62EF72E082F05
:1003A000192F19C020E030E0A9016A2D7B2D8C2D7A
:1003B0009D2D0E947808882374F42BED3FE049ECD2
:1003C00050E46A2D7B2D8C2D9D2D0E941408E62E65
:1003D000F72E082F192F8E2D9F2DA02FB12F809330
:1003E0006C0090936D00A0936E00B0936F002BEDA6
:1003F0003FE049E450E46E2D7F2D802F912F0E9425
:100400001408F981EA81232D322D4F2F5E2F0E948F
:10041000780818168CF02BED3FE049EC50E4F98198
:10042000EA81632D722D8F2F9E2F0E941308362E86
:10043000272E89839A8326C02BED3FE049E450E4C0
:100440006E2D7F2D802F912F0E9413089B01AC01F0
:10045000F981EA81632D722D8F2F9E2F0E947808DB
:10046000181684F02BED3FE049EC50E4F981EA8165
:10047000632D722D8F2F9E2F0E941408362E272E4B
:1004800089839A832E2D3F2D402F512FF981EA81A8
:10049000632D722D8F2F9E2F0E941308E62EF72EAC
:1004A000082F192F862F9F2DA02FB12F809370001A
:1004B00090937100A0937200B093730028EE31EB1B
:1004C00049E750EC672D762D852D942D0E94320939
:1004D0002B013C0124EF38ED4CE950E46B857C8521
:1004E0008D859E850E9432099B01AC01C301B2013A
:1004F0000E94140869837A83682E792EA62EB72E5F
:10050000C82ED92E21E237EA44E95FE36E2D7F2D14
:10051000802F912F0E9432091B012C0128E137EA1C
:1005200044E15FE3FB81EC81692D782D8F2F9E2FB5
:100530000E9432099B01AC01C201B1010E94130863
:10054000862E972EE82EF92E462E572E282E392E3F
:1005500020E030E0A9010E942E0988231CF001E070
:1005600010E002C00FEF1FEF10937D0000937C009E
:1005700020E030E0A901B981AA816B2F7A2F862D66
:10058000972D0E942E0988232CF0A1E0B0E0BE83B5
:10059000AD8304C0EFEFFFEFFE83ED832D813E813D
:1005A00030937F0020937E00B801882777FD8095E7
:1005B000982F0E947E086B837C83082F192F762F3B
:1005C0006C81272F362F402F512F682D792D8E2D9E
:1005D0009F2D0E943209862E972EE82EF92E20E0BC
:1005E00030E040E85FE30E942E0918168CF02DECF5
:1005F0003CEC4CE45DE3682D792D8E2D9F2D0E94FF
:10060000780818164CF0412C512C212C312C04C0A8
:100610004B805C80202E312E842D952DA22DB32D64
:100620008093780090937900A0937A00B0937B0038
:10063000AD81BE81BD01882777FD8095982F0E94EE
:100640007E08862E972EE82EF92E762F272F392D0D
:100650004E2D5F2DB981AA816B2F7A2F862D972D74
:100660000E94320920E030E040E85FE30E942E095A
:10067000181624F4A82CB92CCE2CDF2C7B816C818D
:10068000272F362F402F512F642D752D822D932D1E
:100690000E9432099B01AC0160E070E080E89FE3BA
:1006A0000E941308662E772E082F192F282D392D1A
:1006B0004E2D5F2D6A2D7B2D8C2D9D2D0E94320994
:1006C000262D372D402F512F0E942E09181674F415
:1006D000262D372D402F512F682D792D8E2D9F2DB2
:1006E0000E943209A62EB72EC82ED92E5A2D4B2D78
:1006F0008A2D9B2DAC2DBD2D809374009093750099
:10070000A0937600B0937700252F342F4A2F5B2FCC
:10071000642D752D822D932D0E941408EBA1FCA150
:100720006083718382839383242D352D422D532D35
:100730006A2D7B2D8C2D9D2D0E941308A985BA85CD
:100740006D937D938D939C931397EBA1FCA1C08037
:10075000D180E280F38024EA30E74DE75FE3C70110
:10076000B6010E942E091816ACF024EA30E74DE7D6
:100770005FEBC701B6010E9478088823ACF40F2E06
:10078000F4EACF2EF0E7DF2EFDE7EF2EFFEBFF2E92
:10079000F02D0AC00F2EF4EACF2EF0E7DF2EFDE792
:1007A000EF2EFFE3FF2EF02DABA1BCA1CD92DD9289
:1007B000ED92FC921397E985FA85C080D180E280A2
:1007C000F38024EA30E74DE75FE3C701B6010E94FA
:1007D0002E091816ACF024EA30E74DE75FEBC701AD
:1007E000B6010E9478088823ACF40F2EF4EACF2ECD
:1007F000F0E7DF2EFDE7EF2EFFEBFF2EF02D0AC016
:100800000F2EF4EACF2EF0E7DF2EFDE7EF2EFFE309
:10081000FF2EF02DA985BA85CD92DD92ED92FC9246
:1008200013972E960FB6F894DEBF0FBECDBFDF91A3
:10083000CF911F910F91FF90EF90DF90CF90BF90DD
:10084000AF909F908F907F906F905F904F903F9070
:100850002F9008951092F3001092F2001092F10080
:100860001092F0001092F6001092F50080E381BB28
:1008700082EA8FBD8AE18EBD1BBC1ABC19BC18BCB4
:100880008FE097E297BD86BD84E089BF08958F927F
:100890009F92AF92BF92CF92DF92EF92FF920F930F
:1008A0001F93CF93DF9382B3846482BBDC9A81E091
:1008B0008093F4001092F7008091F7008130E1F707
:1008C0001092F7001092CD001092CE001092D0003E
:1008D0001092CF001092D2001092D100EDECF0E017
:1008E000AEECB0E08081843618F48C918436D0F37D
:1008F0004DEC50E06FEC70E085EB90E00E94B200B0
:1009000098B381E0982798BB92B3946492BB9BB351
:100910009BBB8093F4001092F7008091F700813028
:10092000E1F71092CD001092CE001092D0001092FC
:10093000CF001092D2001092D1001092F700EDEC8F
:10094000F0E0AEECB0E08081843618F48C9184360F
:10095000D0F34DEC50E06FEC70E081EB90E00E9442
:10096000B20098B382E0892788BB82B3886882BBD3
:10097000DC9A81E08093F4001092F7008091F700F8
:100980008130E1F71092CD001092CE001092D0008D
:100990001092CF001092D2001092D1001092F70066
:1009A000EDECF0E0AEECB0E08081843618F48C9190
:1009B0008436D0F34DEC50E06FEC70E08DEA90E0BF
:1009C0000E94B20098B384E0892788BB82B388680C
:1009D00082BB8BB38BBB81E08093F4001092F70055
:1009E0008091F7008130E1F71092CD001092CE0097
:1009F0001092D0001092CF001092D2001092D1002D
:100A00001092F700EDECF0E0AEECB0E080818436BF
:100A100018F48C918436D0F34DEC50E06FEC70E01C
:100A200089EA90E00E94B20098B388E0892788BBE9
:100A3000C091B100D091B20060E070E0CB010E94A3
:100A40007C084B015C016093A1007093A20080932D
:100A5000A3009093A4000091B3001091B40060E053
:100A600070E0CB010E947C086B017C016093A500C3
:100A70007093A6008093A7009093A800B7FAB09453
:100A8000B7F8B094BE0180E090E00E947C089B0122
:100A9000AC01C501B4010E94320920E030E040E819
:100AA0005AE30E9432096093990070939A008093F0
:100AB0009B0090939C00F7FAF094F7F8F094B8013B
:100AC00080E090E00E947C089B01AC01C701B60168
:100AD0000E94320920E030E040E85AE30E943209E7
:100AE00060939D0070939E0080939F009093A00060
:100AF000C091A900D091AA0060E070E0CB010E94F3
:100B00007C084B015C01609391007093920080938C
:100B10009300909394000091AB001091AC0060E0C2
:100B200070E0CB010E947C086B017C016093950012
:100B3000709396008093970090939800B7FAB094C2
:100B4000B7F8B094BE0180E090E00E947C089B0161
:100B5000AC01C501B4010E94320920E030E040E858
:100B60005AE30E9432096093890070938A0080934F
:100B70008B0090938C00F7FAF094F7F8F094B8019A
:100B800080E090E00E947C089B01AC01C701B601A7
:100B90000E94320920E030E040E85AE30E94320926
:100BA00060938D0070938E0080938F0090939000DF
:100BB000DF91CF911F910F91FF90EF90DF90CF9039
:100BC000BF90AF909F908F9008951F920F920FB695
:100BD0000F9211242F938F939F9381E08093D300E2
:100BE0008091F4008130C9F48091F2009091F3007B
:100BF00001969093F3008093F2008091F20090911F
:100C0000F300843F914048F01092F4001092F300FA
:100C10001092F20081E08093F7009F918F912F91C5
:100C20000F900FBE0F901F90189578940E942B077D
:100C30008FEF87BB18BA0E943E000E942A0483E30C
:100C40000E94E0070E9447041092D3000F2EF9EA99
:100C50002F2EF0E03F2EF02DC5ECD0E00F2EF9EC5A
:100C60006F2EF0E07F2EF02D0F2EFDEB4F2EF0E0DB
:100C70005F2EF02D61E870E085E890E00E94F207B9
:100C80008091D300882309F4C0C0809180008F5FD9
:100C9000853618F48093800005C01092800088B3D8
:100CA000805888BB1092D3004DEC50E06FEC70E0A0
:100CB00081EC90E00E94B200DD9929C06091C100F2
:100CC0007091C200E1EBF0E0808191818617970777
:100CD000C8F480E090E00E947C08E1EAF0E0208126
:100CE0003181428153810E943209E9E9F0E020819B
:100CF0003181428153810E941408688379838A83F9
:100D00009B832CC0188219821A821B8227C0609193
:100D1000C1007091C200F10180819181861797070F
:100D2000C8F480E090E00E947C08E1E9F0E02081D6
:100D30003181428153810E943209E9E8F0E020814B
:100D40003181428153810E941408688379838A83A8
:100D50009B8304C0188219821A821B82DD992BC0E2
:100D6000E3ECF0E060817181E3EBF0E08081918160
:100D700086179707D0F480E090E00E947C08E5EAAF
:100D8000F0E020813181428153810E943209EDE9F6
:100D9000F0E020813181428153810E941408F301E7
:100DA000608371838283938330C0F3011082118248
:100DB000128213822AC06091C1007091C200F101B9
:100DC0008081918186179707E0F480E090E00E948F
:100DD0007C08E1E9F0E020813181428153810E9469
:100DE0003209E9E8F0E020813181428153810E949B
:100DF0001408DC01CB01B05888839983AA83BB8394
:100E000004C0188219821A821B82F301A080B1806B
:100E1000C280D380E880F9800A811B812091810003
:100E20003091820040918300509184006091850050
:100E30007091860080918700909188005F924F9218
:100E40000F2EF9EB8F2EF0E09F2EF02D0E94D9008F
:100E50000F900F900FCF10BC87E689B980E28BB955
:100E600088E98AB986E880BD08951F920F920FB66F
:100E70000F9211245F936F937F938F939F93AF9300
:100E8000BF93EF93FF938091EE0090E0FC01EE0F93
:100E9000FF1FEE0FFF1F8E0F9F1FFC01EB52FF4F36
:100EA0008181882341F18091EE0090E0FC01EE0FFA
:100EB000FF1FEE0FFF1F8E0F9F1FFC01EB52FF4F16
:100EC00080818CB98091EE0090E0FC01EE0FFF1F55
:100ED000EE0FFF1F8E0F9F1FFC01EB52FF4F118281
:100EE0008091EE0090E0019665E070E00E94A90913
:100EF0008093EE0001C05598FF91EF91BF91AF91A3
:100F00009F918F917F916F915F910F900FBE0F9086
:100F10001F9018952091EF0030E0F901EE0FFF1FB0
:100F2000EE0FFF1F2E0F3F1FF901EB52FF4F808383
:100F30008091EF0090E0FC01EE0FFF1FEE0FFF1F0E
:100F40008E0F9F1FFC01EB52FF4F81E08183809148
:100F5000EF0090E0019665E070E00E94A90980939F
:100F6000EF00559A08951F920F920FB60F92112419
:100F70002F933F934F935F936F937F938F939F93A1
:100F8000AF93BF93EF93FF938CB18093F800809160
:100F9000D400811104C08091F8000E948A07FF915B
:100FA000EF91BF91AF919F918F917F916F915F91E1
:100FB0004F913F912F910F900FBE0F901F9018955A
:100FC000CF93C82F81E08093D40083E20E948A07E8
:100FD0008C2F0E948A0783E20E948A071092D40015
:100FE000CF910895CF93DF93EC018091F800813F7A
:100FF000B9F06091F80070E080E090E00E947C0819
:1010000020E030E048EC52E40E9413082AE037ED7B
:1010100043E25CE30E943209688379838A839B837D
:10102000DF91CF9108955058BB27AA270ED0DCC07E
:10103000CDD030F0D2D020F031F49F3F11F41EF427
:10104000C2C00EF4E095E7FBB8C0E92FDED080F314
:10105000BA17620773078407950718F071F49EF5B5
:10106000F6C00EF4E0950B2EBA2FA02D0B01B9019E
:1010700090010C01CA01A0011124FF27591B99F00E
:10108000593F50F4503E68F11A16F040A22F232F1A
:10109000342F4427585FF3CF469537952795A7956A
:1010A000F0405395C9F77EF41F16BA0B620B730B11
:1010B000840BBAF09150A1F0FF0FBB1F661F771F82
:1010C000881FC2F70EC0BA0F621F731F841F48F437
:1010D000879577956795B795F7959E3F08F0B3CFBD
:1010E0009395880F08F09927EE0F979587950895A7
:1010F00040D008F481E00895E89409C097FB3EF4DD
:1011000090958095709561957F4F8F4F9F4F992354
:10111000A9F0F92F96E9BB279395F69587957795D2
:101120006795B795F111F8CFFAF4BB0F11F460FF92
:101130001BC06F5F7F4F8F4F9F4F16C0882311F0EA
:1011400096E911C0772321F09EE8872F762F05C0FE
:10115000662371F096E8862F70E060E02AF09A9599
:10116000660F771F881FDAF7880F9695879597F98E
:101170000895990F0008550FAA0BE0E8FEEF161628
:101180001706E807F907C0F012161306E407F5077B
:1011900098F0621B730B840B950B39F40A2661F0EF
:1011A000232B242B252B21F408950A2609F4A14092
:1011B000A6958FEF811D811D089597F99F6780E89F
:1011C00070E060E008959FEF80EC089500240A9499
:1011D0001616170618060906089500240A94121612
:1011E0001306140605060895092E0394000C11F445
:1011F000882352F0BB0F40F4BF2B11F460FF04C0F2
:101200006F5F7F4F8F4F9F4F089557FD9058440F4A
:10121000551F59F05F3F71F04795880F97FB991F55
:1012200061F09F3F79F08795089512161306140612
:10123000551FF2CF4695F1DF08C01616170618069F
:10124000991FF1CF86957105610508940895E8947A
:10125000BB2766277727CB0197F908958ADF08F423
:101260008FEF08950BD0C0CFB1DF28F0B6DF18F0B4
:10127000952309F0A2CFA7CF1124EACFC6DFA0F3B0
:10128000959FD1F3950F50E0551F629FF001729F1B
:10129000BB27F00DB11D639FAA27F00DB11DAA1F3A
:1012A000649F6627B00DA11D661F829F2227B00D87
:1012B000A11D621F739FB00DA11D621F839FA00D12
:1012C000611D221F749F3327A00D611D231F849F62
:1012D000600D211D822F762F6A2F11249F575040B9
:1012E0008AF0E1F088234AF0EE0FFF1FBB1F661F54
:1012F000771F881F91505040A9F79E3F510570F00D
:101300005CCFA6CF5F3FECF3983EDCF386957795F4
:101310006795B795F795E7959F5FC1F7FE2B880F07
:10132000911D9695879597F90895AA1BBB1B51E1CE
:1013300007C0AA1FBB1FA617B70710F0A61BB70B45
:10134000881F991F5A95A9F780959095BC01CD01EA
:10135000089597FB072E16F4009407D077FD09D067
:101360000E94950907FC05D03EF4909581959F4F0A
:0E1370000895709561957F4F0895F894FFCF12
:00000001FF
