S0120000526F626F74506572736F2E7372656303
S11300000C942A000C9447000C9447000C9447006D
S11300100C9447000C9447000C9447000C94470040
S11300200C9447000C949F020C9447000C944700D6
S11300300C9447000C9402030C9416030C94470090
S11300400C9453000C9447000C9447000C94470004
S11300500C94470011241FBECFE5D8E0DEBFCDBF0E
S113006010E0A0E6B0E0E8EBF8E002C005900D92E5
S1130070AE36B107D9F720E0AEE6B0E001C01D927C
S1130080A33CB207E1F70E94CF020C945A040C94EB
S1130090000017B88FEA86B910BE369A97B181E08E
S11300A0892787B908951F920F920FB60F921124D2
S11300B02F933F934F935F938F939F93EF93FF936C
S11300C097B181E0892787B924B135B1932F80E0B6
S11300D0822B27B1322F317020FF04C0313009F058
S11300E03FC01FC0D99B0FC0E0EAF0E020813181FE
S11300F0A901481B590B51834083EEE9F0E080814C
S11301008F5F80832DC0E0EAF0E020813181820F8F
S1130110931F91838083EEE9F0E080818F5F808379
S11301201FC02BB3237079F0E2EAF0E02081318123
S1130130A901481B590B51834083EFE9F0E080810A
S11301408F5F80830DC0E2EAF0E020813181820F6D
S1130150931F91838083EFE9F0E080818F5F808338
S1130160FF91EF919F918F915F914F913F912F91CB
S11301700F900FBE0F901F901895CF93DF93FC0143
S1130180EB019A0110929E001092A1001092A0001F
S113019010929F001092A3001092A2008A819B816A
S11301A0DA0111966C9170E00E94460473836283B5
S11301B088819981D9016C9170E00E944604718311
S11301C06083DF91CF9108951092A9001092A80046
S11301D01092A7001092A6001092AC001092AB00EF
S11301E080E381BB82EA8FBD8AE18EBD1BBC1ABC51
S11301F019BC18BC8FE097E297BD86BD84E089BF27
S113020008958F929F92AF92BF92CF92DF92EF9216
S1130210FF920F931F93CF93DF9382B3846482BBC7
S1130220DC9A81E08093AA001092AD008091AD0029
S11302308130E1F71092AD0010929E0010929F0061
S11302401092A1001092A0001092A3001092A2009C
S1130250EEE9F0E0AFE9B0E08081843618F48C91E7
S11302608436D0F34EE950E060EA70E08AE990E029
S11302700E94BD0098B381E0982798BB92B3946420
S113028092BB9BB39BBB8093AA001092AD0080915C
S1130290AD008130E1F710929E0010929F00109201
S11302A0A1001092A0001092A3001092A20010923C
S11302B0AD00EEE9F0E0AFE9B0E08081843618F4F7
S11302C08C918436D0F34EE950E060EA70E086E920
S11302D090E00E94BD0098B382E0892788BB82B376
S11302E0886882BBDC9A81E08093AA001092AD00FA
S11302F08091AD008130E1F710929E0010929F0032
S11303001092A1001092A0001092A3001092A200DB
S11303101092AD00EEE9F0E0AFE9B0E08081843600
S113032018F48C918436D0F34EE950E060EA70E022
S113033082E990E00E94BD0098B384E0892788BBDD
S113034082B3886882BB8BB38BBB81E08093AA00A5
S11303501092AD008091AD008130E1F710929E00C3
S113036010929F001092A1001092A0001092A3007E
S11303701092A2001092AD00EEE9F0E0AFE9B0E017
S11303808081843618F48C918436D0F34EE950E0A1
S113039060EA70E08EE890E00E94BD0098B388E0C7
S11303A0892788BBC0919600D091970060E070E0E7
S11303B0CB010E9455034B015C016093860070934E
S11303C08700809388009093890000919800109191
S11303D0990060E070E0CB010E9455036B017C0141
S11303E060938A0070938B0080938C0090938D00AF
S11303F0B7FAB094B7F8B094BE0180E090E00E94E0
S113040055039B01AC01C501B4010E94E30320E044
S113041030E040E85AE30E94E30360937E00709367
S11304207F008093800090938100F7FAF094F7F8AE
S1130430F094B80180E090E00E9455039B01AC0168
S1130440C701B6010E94E30320E030E040E85AE32C
S11304500E94E3036093820070938300809384007E
S113046090938500C0918E00D0918F0060E070E081
S1130470CB010E9455034B015C016093760070939D
S11304807700809378009093790000919000109108
S1130490910060E070E0CB010E9455036B017C0188
S11304A060937A0070937B0080937C0090937D002E
S11304B0B7FAB094B7F8B094BE0180E090E00E941F
S11304C055039B01AC01C501B4010E94E30320E084
S11304D030E040E85AE30E94E30360936E007093B7
S11304E06F008093700090937100F7FAF094F7F81E
S11304F0F094B80180E090E00E9455039B01AC01A8
S1130500C701B6010E94E30320E030E040E85AE36B
S11305100E94E303609372007093730080937400ED
S113052090937500DF91CF911F910F91FF90EF9001
S1130530DF90CF90BF90AF909F908F9008951F92BF
S11305400F920FB60F9211242F938F939F9381E0F4
S11305508093A4008091AA008130C9F48091A800FE
S11305609091A90001969093A9008093A80080918E
S1130570A8009091A900843F914048F01092AA00ED
S11305801092A9001092A80081E08093AD009F9181
S11305908F912F910F900FBE0F901F901895789404
S11305A00E94F8028FEF87BB18BA0E9449000E948C
S11305B0E4000E9401011092A4002DE081E03FEFCD
S11305C043E294EF315040409040E1F700C0000016
S11305D0E1E6F0E0AEEAB0E0922F01900D929A9538
S11305E0E1F78093A500559A98B3982798BBE7CF75
S11305F010BC87E689B980E28BB988E98AB986E8B4
S113060080BD08951F920F920FB60F9211248F93FD
S11306108CB18093C2008091A500811101C0559ACC
S11306208F910F900FBE0F901F9018951F920F92ED
S11306300FB60F9211248F93EF93FF938091A5002F
S1130640813039F580916000843129F48FEF8CB9C1
S11306501092600022C0E0916000F0E0E255FF4F8C
S11306608081882369F0E0916000F0E0E255FF4F5B
S113067080818CB9809160008F5F809360000DC091
S11306808EEF8CB9559884E1809360001092A50098
S113069004C08091C2008CB95598FF91EF918F915D
S11306A00F900FBE0F901F901895E89409C097FB08
S11306B03EF490958095709561957F4F8F4F9F4F35
S11306C09923A9F0F92F96E9BB279395F695879579
S11306D077956795B795F111F8CFFAF4BB0F11F43C
S11306E060FF1BC06F5F7F4F8F4F9F4F16C08823E3
S11306F011F096E911C0772321F09EE8872F762F19
S113070005C0662371F096E8862F70E060E02AF059
S11307109A95660F771F881FDAF7880F9695879545
S113072097F9089597F99F6780E870E060E008956D
S11307309FEF80EC089500240A94161617061806F5
S11307400906089500240A941216130614060506D1
S11307500895092E0394000C11F4882352F0BB0F62
S113076040F4BF2B11F460FF04C06F5F7F4F8F4FC5
S11307709F4F089557FD9058440F551F59F05F3F00
S113078071F04795880F97FB991F61F09F3F79F0AF
S113079087950895121613061406551FF2CF469531
S11307A0F1DF08C0161617061806991FF1CF8695B3
S11307B07105610508940895E894BB276627772797
S11307C0CB0197F908950BD0C4CFB5DF28F0BADF79
S11307D018F0952309F0A6CFABCF1124EECFCADFD2
S11307E0A0F3959FD1F3950F50E0551F629FF00140
S11307F0729FBB27F00DB11D639FAA27F00DB11D99
S1130800AA1F649F6627B00DA11D661F829F222721
S1130810B00DA11D621F739FB00DA11D621F839FA8
S1130820A00D611D221F749F3327A00D611D231F7E
S1130830849F600D211D822F762F6A2F11249F57CC
S113084050408AF0E1F088234AF0EE0FFF1FBB1FEF
S1130850661F771F881F91505040A9F79E3F51058E
S113086070F060CFAACF5F3FECF3983EDCF386953F
S113087077956795B795F795E7959F5FC1F7FE2B39
S1130880880F911D9695879597F90895AA1BBB1B10
S113089051E107C0AA1FBB1FA617B70710F0A61B7C
S11308A0B70B881F991F5A95A9F780959095BC019D
S10B08B0CD010895F894FFCF77
S11108B81448656C6C6F2020576F726C6400DE
S9030000FC
